{"abi":[{"type":"constructor","inputs":[],"stateMutability":"nonpayable"},{"type":"function","name":"batchIncrement","inputs":[{"name":"iterations","type":"uint256","internalType":"uint256"}],"outputs":[],"stateMutability":"nonpayable"},{"type":"function","name":"concurrentIncrement","inputs":[],"outputs":[],"stateMutability":"nonpayable"},{"type":"function","name":"decrement","inputs":[],"outputs":[],"stateMutability":"nonpayable"},{"type":"function","name":"fastIncrement","inputs":[],"outputs":[],"stateMutability":"nonpayable"},{"type":"function","name":"getCount","inputs":[],"outputs":[{"name":"","type":"uint256","internalType":"uint256"}],"stateMutability":"view"},{"type":"function","name":"getLastIncrement","inputs":[],"outputs":[{"name":"","type":"uint256","internalType":"uint256"}],"stateMutability":"view"},{"type":"function","name":"getOwner","inputs":[],"outputs":[{"name":"","type":"address","internalType":"address"}],"stateMutability":"view"},{"type":"function","name":"getTotalIncrements","inputs":[],"outputs":[{"name":"","type":"uint256","internalType":"uint256"}],"stateMutability":"view"},{"type":"function","name":"increment","inputs":[],"outputs":[],"stateMutability":"nonpayable"},{"type":"function","name":"incrementBy","inputs":[{"name":"amount","type":"uint256","internalType":"uint256"}],"outputs":[],"stateMutability":"nonpayable"},{"type":"function","name":"parallelIncrement","inputs":[{"name":"groupId","type":"uint256","internalType":"uint256"}],"outputs":[],"stateMutability":"nonpayable"},{"type":"function","name":"reset","inputs":[],"outputs":[],"stateMutability":"nonpayable"},{"type":"event","name":"BatchIncremented","inputs":[{"name":"count","type":"uint256","indexed":false,"internalType":"uint256"},{"name":"total","type":"uint256","indexed":false,"internalType":"uint256"},{"name":"caller","type":"address","indexed":true,"internalType":"address"},{"name":"timestamp","type":"uint256","indexed":false,"internalType":"uint256"}],"anonymous":false},{"type":"event","name":"Incremented","inputs":[{"name":"newCount","type":"uint256","indexed":false,"internalType":"uint256"},{"name":"caller","type":"address","indexed":true,"internalType":"address"},{"name":"timestamp","type":"uint256","indexed":false,"internalType":"uint256"},{"name":"totalIncrements","type":"uint256","indexed":false,"internalType":"uint256"}],"anonymous":false},{"type":"event","name":"ParallelExecution","inputs":[{"name":"groupId","type":"uint256","indexed":false,"internalType":"uint256"},{"name":"count","type":"uint256","indexed":false,"internalType":"uint256"},{"name":"caller","type":"address","indexed":true,"internalType":"address"}],"anonymous":false}],"bytecode":{"object":"0x6080604052348015600e575f5ffd5b503360035f6101000a81548173ffffffffffffffffffffffffffffffffffffffff021916908373ffffffffffffffffffffffffffffffffffffffff1602179055505f5f81905550426001819055505f600281905550610e4d806100705f395ff3fe608060405234801561000f575f5ffd5b50600436106100b2575f3560e01c8063775665061161006f578063775665061461012a578063893d20e814610146578063a87d942c14610164578063ad74a40b14610182578063d09de08a146101a0578063d826f88f146101aa576100b2565b806303df179c146100b65780630d2fe42e146100d2578063121e9915146100dc5780631ab50215146100f85780631defe891146101025780632baeceb714610120575b5f5ffd5b6100d060048036038101906100cb9190610867565b6101b4565b005b6100da6102c9565b005b6100f660048036038101906100f19190610867565b610336565b005b610100610448565b005b61010a6104d8565b60405161011791906108a1565b60405180910390f35b6101286104e1565b005b610144600480360381019061013f9190610867565b610598565b005b61014e610675565b60405161015b91906108f9565b60405180910390f35b61016c61069d565b60405161017991906108a1565b60405180910390f35b61018a6106a5565b60405161019791906108a1565b60405180910390f35b6101a86106ae565b005b6101b2610739565b005b5f81116101f6576040517f08c379a00000000000000000000000000000000000000000000000000000000081526004016101ed90610992565b60405180910390fd5b6103e881111561023b576040517f08c379a000000000000000000000000000000000000000000000000000000000815260040161023290610a20565b60405180910390fd5b805f5f82825461024b9190610a6b565b92505081905550426001819055508060025f82825461026a9190610a6b565b925050819055503373ffffffffffffffffffffffffffffffffffffffff167f7ea81af31cae91382a77635bc793508ac6497f13d8c738aaff790cbeaec20a7e5f54426002546040516102be93929190610a9e565b60405180910390a250565b5f54600181015f5542600155600160025401600255503373ffffffffffffffffffffffffffffffffffffffff167f7ea81af31cae91382a77635bc793508ac6497f13d8c738aaff790cbeaec20a7e5f544260025460405161032c93929190610a9e565b60405180910390a2565b5f8111610378576040517f08c379a000000000000000000000000000000000000000000000000000000000815260040161036f90610b43565b60405180910390fd5b60648111156103bc576040517f08c379a00000000000000000000000000000000000000000000000000000000081526004016103b390610bd1565b60405180910390fd5b805f5f8282546103cc9190610a6b565b925050819055508060025f8282546103e49190610a6b565b92505081905550426001819055503373ffffffffffffffffffffffffffffffffffffffff167f56899ac979c666ff79ef93323bc645c4cfc77390a14ad163e32370e04252e167825f544260405161043d93929190610a9e565b60405180910390a250565b5f5f5490505f60025490506001826104609190610a6b565b5f819055506001816104729190610a6b565b600281905550426001819055503373ffffffffffffffffffffffffffffffffffffffff167f7ea81af31cae91382a77635bc793508ac6497f13d8c738aaff790cbeaec20a7e5f54426002546040516104cc93929190610a9e565b60405180910390a25050565b5f600254905090565b5f5f5411610524576040517f08c379a000000000000000000000000000000000000000000000000000000000815260040161051b90610c5f565b60405180910390fd5b5f5f81548092919061053590610c7d565b9190505550426001819055503373ffffffffffffffffffffffffffffffffffffffff167f7ea81af31cae91382a77635bc793508ac6497f13d8c738aaff790cbeaec20a7e5f544260025460405161058e93929190610a9e565b60405180910390a2565b5f5f8154809291906105a990610ca4565b91905055504260018190555060025f8154809291906105c790610ca4565b91905055503373ffffffffffffffffffffffffffffffffffffffff167fd328324ef0a158adac4c2ee6368c9aa29113ac38b99d6470287ac60f24edf06e825f54604051610615929190610ceb565b60405180910390a23373ffffffffffffffffffffffffffffffffffffffff167f7ea81af31cae91382a77635bc793508ac6497f13d8c738aaff790cbeaec20a7e5f544260025460405161066a93929190610a9e565b60405180910390a250565b5f60035f9054906101000a900473ffffffffffffffffffffffffffffffffffffffff16905090565b5f5f54905090565b5f600154905090565b5f5f8154809291906106bf90610ca4565b91905055504260018190555060025f8154809291906106dd90610ca4565b91905055503373ffffffffffffffffffffffffffffffffffffffff167f7ea81af31cae91382a77635bc793508ac6497f13d8c738aaff790cbeaec20a7e5f544260025460405161072f93929190610a9e565b60405180910390a2565b60035f9054906101000a900473ffffffffffffffffffffffffffffffffffffffff1673ffffffffffffffffffffffffffffffffffffffff163373ffffffffffffffffffffffffffffffffffffffff16146107c8576040517f08c379a00000000000000000000000000000000000000000000000000000000081526004016107bf90610d82565b60405180910390fd5b5f5f819055505f600281905550426001819055503373ffffffffffffffffffffffffffffffffffffffff167f7ea81af31cae91382a77635bc793508ac6497f13d8c738aaff790cbeaec20a7e5f425f60405161082693929190610de2565b60405180910390a2565b5f5ffd5b5f819050919050565b61084681610834565b8114610850575f5ffd5b50565b5f813590506108618161083d565b92915050565b5f6020828403121561087c5761087b610830565b5b5f61088984828501610853565b91505092915050565b61089b81610834565b82525050565b5f6020820190506108b45f830184610892565b92915050565b5f73ffffffffffffffffffffffffffffffffffffffff82169050919050565b5f6108e3826108ba565b9050919050565b6108f3816108d9565b82525050565b5f60208201905061090c5f8301846108ea565b92915050565b5f82825260208201905092915050565b7f506172616c6c656c436f756e7465723a20616d6f756e74206d757374206265205f8201527f67726561746572207468616e2030000000000000000000000000000000000000602082015250565b5f61097c602e83610912565b915061098782610922565b604082019050919050565b5f6020820190508181035f8301526109a981610970565b9050919050565b7f506172616c6c656c436f756e7465723a20616d6f756e7420746f6f206c6172675f8201527f6520666f7220706172616c6c656c20657865637574696f6e0000000000000000602082015250565b5f610a0a603883610912565b9150610a15826109b0565b604082019050919050565b5f6020820190508181035f830152610a37816109fe565b9050919050565b7f4e487b71000000000000000000000000000000000000000000000000000000005f52601160045260245ffd5b5f610a7582610834565b9150610a8083610834565b9250828201905080821115610a9857610a97610a3e565b5b92915050565b5f606082019050610ab15f830186610892565b610abe6020830185610892565b610acb6040830184610892565b949350505050565b7f506172616c6c656c436f756e7465723a20697465726174696f6e73206d7573745f8201527f2062652067726561746572207468616e20300000000000000000000000000000602082015250565b5f610b2d603283610912565b9150610b3882610ad3565b604082019050919050565b5f6020820190508181035f830152610b5a81610b21565b9050919050565b7f506172616c6c656c436f756e7465723a20697465726174696f6e732063616e6e5f8201527f6f74206578636565642031303000000000000000000000000000000000000000602082015250565b5f610bbb602d83610912565b9150610bc682610b61565b604082019050919050565b5f6020820190508181035f830152610be881610baf565b9050919050565b7f506172616c6c656c436f756e7465723a20636f756e742063616e6e6f742062655f8201527f206e656761746976650000000000000000000000000000000000000000000000602082015250565b5f610c49602983610912565b9150610c5482610bef565b604082019050919050565b5f6020820190508181035f830152610c7681610c3d565b9050919050565b5f610c8782610834565b91505f8203610c9957610c98610a3e565b5b600182039050919050565b5f610cae82610834565b91507fffffffffffffffffffffffffffffffffffffffffffffffffffffffffffffffff8203610ce057610cdf610a3e565b5b600182019050919050565b5f604082019050610cfe5f830185610892565b610d0b6020830184610892565b9392505050565b7f506172616c6c656c436f756e7465723a2063616c6c6572206973206e6f7420745f8201527f6865206f776e6572000000000000000000000000000000000000000000000000602082015250565b5f610d6c602883610912565b9150610d7782610d12565b604082019050919050565b5f6020820190508181035f830152610d9981610d60565b9050919050565b5f819050919050565b5f819050919050565b5f610dcc610dc7610dc284610da0565b610da9565b610834565b9050919050565b610ddc81610db2565b82525050565b5f606082019050610df55f830186610dd3565b610e026020830185610892565b610e0f6040830184610dd3565b94935050505056fea2646970667358221220e43460fdade83c440cf099ec4374f0f58993ff0a8f86ee7e80594fce9fa213ef64736f6c634300081e0033","linkReferences":{}},"methodIdentifiers":{"batchIncrement(uint256)":"121e9915","concurrentIncrement()":"1ab50215","decrement()":"2baeceb7","fastIncrement()":"0d2fe42e","getCount()":"a87d942c","getLastIncrement()":"ad74a40b","getOwner()":"893d20e8","getTotalIncrements()":"1defe891","increment()":"d09de08a","incrementBy(uint256)":"03df179c","parallelIncrement(uint256)":"77566506","reset()":"d826f88f"},"id":0}